S01A00004169724D6F6E697472696E674465766963652E73726563E7
S11300003AC1000058C1000056C1000054C10000AC
S113001052C1000050C100004EC100004CC100009C
S11300204AC1000048C1000046C1000044C10000AC
S113003042C1000040C100003EC100003CC10000BC
S11300403AC1000038C1000036C1000034C10000CC
S113005032C1000030C100002EC100002CC10000DC
S11300602AC1000028C1000026C1000024C10000EC
S113007022C1000020C100001EC100001CC10000FC
S11300801AC1000018C1000016C1000014C100000C
S113009012C1000010C100000EC100000CC100001C
S11300A00AC1000008C1000006C1000004C100002C
S11300B002C1000000C10000FEC00000FCC000003E
S11300C0FAC00000F8C00000F6C00000F4C0000050
S11300D0F2C00000F0C00000EEC00000ECC0000060
S11300E0EAC00000620652066506550658065B061D
S11300F05E0607634236B79BD8A71A39685618AE0E
S1130100BAAB558C1D3CB7CC5763BD6DEDFD753E48
S1130110F6177231BF000000803F08000000BE9255
S11301202449123EABAAAA2ABECDCCCC4C3E000038
S11301300080BEABAAAAAA3E00000000BF000000D7
S1130140803F0000000000084178D3BB4387D113EF
S11301503D190E3CC3BD4282AD2B3E68EC8276BE97
S1130160D98FE1A93E4C80EFFFBE01C4FF7F3F0061
S1130170000000006E616E00696E660000407A1037
S1130180F35A00A0724E18090010A5D4E80000E844
S11301907648170000E40B54020000CA9A3B0000A2
S11301A000E1F505000080969800000040420F0031
S11301B00000A08601000000102700000000E803F2
S11301C0000000006400000000000A0000000000BD
S11301D00100000000002C76D888DC674F0823DF7C
S11301E0C1DFAE59E1B1B796E5E3E453C63AE6514F
S11301F0997696E8E6C28426EB898C9B62ED407C76
S11302006FFCEFBC9C9F40F2BAA56FA5F490055A11
S11302102AF75C936B6CF9676DC11BFCE0E40D4736
S1130220FEF520E6B500D0ED902E03009435770559
S11302300080841E080000204E0A000000C80C3311
S11302403333330F986E12831141EF8D2114893BA0
S1130250E65516CFFEE6DB18D1844B381BF77C1D20
S1130260901DA4BBE424203284725E228100C9F173
S113027024ECA1E53D2711241FBECFEFD1E2DEBF60
S1130280CDBF00E00CBF13E0A0E0B2E0E6EBF1E28A
S113029000E00BBF02C007900D92A03AB107D9F756
S11302A024E0A0EAB3E001C01D92A83EB207E1F742
S11302B0FFD50C94D910A4CE10BA87E480937C00A7
S11302C087E880937A000895CF93DF93EAE7F0E01C
S11302D0808180648083808186FDFDCFC091780019
S11302E0D09179008EE192E049D5CE0155D589E2CD
S11302F092E044D5CE01DF91CF9108951092800011
S1130300E1E8F0E088E08083808185608083E8E82C
S1130310F0E081E19AE79183808380819181019764
S11303209093850080938400089586B38E7086BB75
S1130330109285001092840008958091E704882328
S113034071F08CE292E01AD526B381E090E022238A
S113035011F080E090E020D58CE293E00FD596B3C5
S113036081E0911180E008958093E704EAE0F1E0F0
S11303708081877F8083EBE0F1E0808188608083E7
S1130380BDCF08958091E704882319F087E392E0B4
S1130390F5D4AAE0B1E08C91877F8C93EBE0F1E097
S11303A08081886080832FEF83ED90E3215080402B
S11303B09040E1F700C000008C9188608C938081AC
S11303C0877F80838FE291E10197F1F700C00000FD
S11303D08C91877F8C9380818860808395ED9A953A
S11303E0F1F70000089580E090E0E9E0F1E00AC050
S11303F0019681382EE3920729F48EE492E0BED46C
S113040080E00895208123FFF3CF80E090E0E9E0CD
S1130410F1E00AC0019681382EE3920729F48FE7B0
S113042092E0ACD480E00895208123FDF3CF81E0F5
S113043008954F925F926F927F928F929F92AF92A4
S1130440BF92CF92DF92EF92FF920F931F93CF93BD
S1130450DF9305EA13E00F2EF5EE8F2EF4E09F2EC6
S1130460F02DC9E0D1E0CC24CA94DC2C760142C042
S113047080E848168EE358066104710440F0F801E0
S1130480C082D182E282F38281EB92E077D4FFEFE3
S11304904F1A5F0A6F0A7F0A888183FFE9CF5801E8
S11304A0F8014082518262827382412C512C3201C4
S11304B014C0F0E84F16FEE35F066104710440F0D7
S11304C0F501C482D582E682F78281EB92E056D4AC
S11304D0FFEF4F1A5F0A6F0A7F0A888183FDE9CF15
S11304E0F5014482558266827782085F1F4F0815A2
S11304F0190521F0412C512C3201CECF85EA93E02D
S1130500DF91CF911F910F91FF90EF90DF90CF90EB
S1130510BF90AF909F908F907F906F905F904F901F
S113052008958F929F92AF92BF92CF92DF92EF92F3
S1130530FF920F931F93CF93DF93E0EAF3E01482CB
S11305401382128211821082BC0140E050E0FB0150
S11305509A01552314F4295F3F4F35952795359516
S1130560279535952795D901A056BC4F9C91990F95
S113057084809580A680B780C080D180E280F3809B
S11305808C149D04AE04BF0418F4FD01908305C0CF
S1130590F901E056FC4F916090834F5F5F4F685FB5
S11305A07F4F4832510599F68091E704882381F002
S11305B0C0EAD3E005EA13E0899190E0EDD38CED35
S11305C092E0DCD30C171D07B9F78CE293E0D6D385
S11305D080EA93E0DF91CF911F910F91FF90EF900C
S11305E0DF90CF90BF90AF909F908F900895EF923F
S11305F0FF920F931F93CF93DF939FDE811149C026
S113060094DEC0DEF0DE15DF7C018091E7048823F0
S113061091F0E7018701005C1E4F89919991A9919E
S1130620B991BAD38CED92E0A9D3C017D107A9F739
S11306308CE293E0A3D3C70174DFEC012C8130E09A
S11306404881898190E0840F911D4A81840F911D16
S11306504B81840F911D99272817390771F48091D4
S1130660E704882319F08FED92E088D3D093E60451
S1130670C093E5048C2F9D2F17C08091E704882335
S113068019F082EF92E07AD38091E5049091E60428
S11306900BC08091E704882319F085E093E06ED3C2
S11306A08091E5049091E604DF91CF911F910F9121
S11306B0FF90EF9008959BDFFC01608170E0762F3E
S11306C066278181682B072E000C880B990BB2D505
S11306D02DEC3CEC4CEC5DE313C7CF9388DFFC01BD
S11306E0C2816C2F6F7770E0762F66278381682B29
S11306F0072E000C880B990B9DD52DEC3CEC4CEC93
S11307005DE3FED6CC230CF49058CF910895E2E03B
S1130710F1E080818064808300000000000000001C
S113072080818F7B8083000000000000000008951A
S1130730E2E0F1E0208190E0AC01440F551F4871E4
S1130740277E242B20832EB1AC01440F551F440F68
S1130750551F4870277F242B2EB924B3880F991F67
S113076082959295907F9827807F98278072922F08
S11307709F7D892B84BB0895CF93C82F8FE39FE17E
S11307800197F1F700C00000E2E0F1E080818F7989
S113079080838C2F82958F70CBDFB9DF8C2FC8DFDD
S11307A0B6DFCF910895882331F0E2E0F1E0808153
S11307B0806280830895E2E0F1E080818F7D808310
S11307C00895CF93C82F8FE39FE10197F1F700C0FD
S11307D00000E2E0F1E080818F7B808381E090E0A3
S11307E0E2DF8C2F82958F70A3DF91DF8C2FA0DF47
S11307F08EDFCF910895E1E0F1E080818867808306
S11308006B9A9D9A2FEF80E792E0215080409040B0
S1130810E1F700C00000A59A739A79DF8FE39CE9A1
S11308200197F1F700C0000072DF8FE39CE90197A4
S1130830F1F700C000006BDF8FE39CE90197F1F74B
S113084000C00000A59863DF88E296DF88E094DFAB
S113085081E092DF86E090DF8FE08ECF089581E023
S11308608BCF0895805890E4699F800D112484CF24
S11308700895A7CF0895CF93DF93EC01888188234F
S113088029F021969EDF89918111FCCFDF91CF91D0
S11308900895CF93DF93CDB7DEB727970FB6F894BB
S11308A0DEBF0FBECDBF4AE0BE016F5F7F4F0E9427
S11308B0DE0FCE010196DFDF27960FB6F894DEBF78
S11308C00FBECDBFDF91CF9108950F931F93CF93A8
S11308D0DF938B0128E0829FC001112480644CDFE8
S11308E0E801085F1F4F89916CDFC017D107D9F762
S11308F080E842DFDF91CF911F910F910895E9EBDA
S1130900F0E08081817F80838AE08093B80008953D
S113091084EA8093BC00ECEBF0E080818823ECF760
S113092008958093BB0084E88093BC00ECEBF0E076
S113093080818823ECF70895811104C084EC8093AE
S1130940BC0003C084E88093BC00ECEBF0E0808141
S11309508823ECF78091BB00089584E98093BC0060
S113096008954F925F926F927F928F929F92AF926F
S1130970BF92CF92DF92EF92FF920F931F93CF9388
S1130980DF9300D01F92CDB7DEB78C0160910802CF
S113099070910902072E000C880B990B4BD44B0164
S11309A05C01B801110F880B990B44D420E030ECA2
S11309B04FE754E473D320E030E040EA50E4A0D59C
S11309C06B017C0120E030E040EA50E4C501B40151
S11309D097D52B013C01A7019601C501B40190D51F
S11309E09B01AC01C301B201F4D2A701960156D315
S11309F069837A838B839C8369817A818B819C81CF
S1130A000F900F900F900F90DF91CF911F910F9146
S1130A10FF90EF90DF90CF90BF90AF909F908F901A
S1130A207F906F905F904F9008952EE448E060E8C7
S1130A3075E280E090E04ED13FCC08958F929F9272
S1130A40AF92BF92CF92DF92EF92FF921F93CF9318
S1130A50DF93182F8FE293E091D1CAE0D0E0C12C4C
S1130A60D12C760131DC7DDF9B01AC01C701B601DD
S1130A70B1D26B017C012FEF89E698E121508040CF
S1130A809040E1F700C00000219761F711113BC0CD
S1130A90C0E0D2E020E030E84FEC53E46881798193
S1130AA08A819B81FBD2B9D42C813D814E815F81A7
S1130AB0F5D261D34B015C0120E030E040E251E427
S1130AC0C701B601EBD2A50194011AD560930A02BD
S1130AD070930B0280930C0290930D0289E493E0CF
S1130AE04DD186E693E04AD160910A0270910B02DF
S1130AF080910C0290910D026AD3CB014DD181E714
S1130B0093E03CD10CC080E090E0A0E8BFEB809380
S1130B100A0290930B02A0930C02B0930D02DF9192
S1130B20CF911F91FF90EF90DF90CF90BF90AF9047
S1130B309F908F900895CF92DF92EF92FF92CF9380
S1130B40DF93C5E0D0E0C12CD12C7601BDDB09DFF9
S1130B509B01AC01C701B6013DD26B017C012FEFB3
S1130B6080E792E0215080409040E1F700C000000F
S1130B70219761F720E030E040EA50E4C701B60174
S1130B808DD2DF91CF91FF90EF90DF90CF900895B9
S1130B90CF92DF92EF92FF920F931F93CF93DF9345
S1130BA000D01F92CDB7DEB7182FC5DF69837A83D3
S1130BB08B839C8311111EC069817A818B819C81F6
S1130BC000E012E0F801C480D580E680F78020912F
S1130BD00A0230910B0240910C0250910D025ED238
S1130BE0A7019601F0D4F80120813181428153811B
S1130BF087D404C060E070E080E89FEB0F900F9012
S1130C000F900F90DF91CF911F910F91FF90EF9074
S1130C10DF90CF900895982F92959F70990F292F68
S1130C20220F220F920F8F70890F0895CF93DF93B5
S1130C30EC016EDE80ED75DE80E073DE8EDE68DE54
S1130C4081ED6FDE80E078DEE6DF888380E074DEAD
S1130C50E2DF898380E070DEDEDF8A8380E06CDEA1
S1130C60DADF8B8380E068DED6DF8C8380E064DEAD
S1130C70D2DF8D8381E060DECEDF90E08053984F39
S1130C809F838E836ADEDF91CF91089590E0FC010B
S1130C903197E730F105A8F48827EE58FF4F8F4FBE
S1130CA00C94E80E29E733E012C021E833E00FC0CA
S1130CB025E833E00CC029E833E009C02DE833E02F
S1130CC006C0089525E733E002C02DE733E0822F04
S1130CD0932F08950F931F93522F8B019C010C5255
S1130CE0114021093109053D104C21403105D8F549
S1130CF045504430C0F520E22093C00028E1209301
S1130D00C100440F4093C200553431F4E2ECF0E0EA
S1130D1020812062208307C05F3429F4E2ECF0E0F4
S1130D20208120632083DC01CB01880F991FAA1F37
S1130D30BB1F880F991FAA1FBB1F9C01AD01220F67
S1130D40331F441F551F220F331F441F551F60E0DC
S1130D5074E284EF90E00E94C60E21503109309372
S1130D60C5002093C4001F910F910895E0ECF0E0BA
S1130D70908195FFFDCF8093C6000895CF93DF93B4
S1130D80EC018881882329F02196F0DF8991811173
S1130D90FCCFDF91CF910895CF93DF93CDB7DEB72A
S1130DA027970FB6F894DEBF0FBECDBF4AE0BE0151
S1130DB06F5F7F4F0E94DE0FCE010196DFDF279623
S1130DC00FB6F894DEBF0FBECDBFDF91CF9108956B
S1130DD0CF93DF93CDB7DEB760970FB6F894DEBF3D
S1130DE00FBECDBF88E0EEE0F2E0DE011196019087
S1130DF00D928A95E1F7BE016F5F7F4F80E065DD5C
S1130E0088E0E6E1F2E0DE01199601900D928A9500
S1130E10E1F7BE01675F7F4F81E057DD60960FB653
S1130E20F894DEBF0FBECDBFDF91CF910895CF936D
S1130E30DF93EC018B812ADF1EDD80E21ADD8C81D9
S1130E408A3010F480E315DD8C8190E022DD8FE29E
S1130E5010DD8D818A3010F480E30BDD8D8190E00C
S1130E6018DD8DE206DD8E819F8113DD61E080E077
S1130E70F9DC8A818A3010F480E3FBDC8A8190E01B
S1130E8008DD8AE3F6DC89818A3010F480E3F1DC42
S1130E90898190E0FEDC8AE3ECDC88818A3010F4FE
S1130EA080E3E7DC888190E0F4DCDF91CF91089562
S1130EB0CF93DF93CDB7DEB76D970FB6F894DEBF4F
S1130EC00FBECDBF2EE448E060E875E280E090E01C
S1130ED001DF80E049DA13DD8EDC7ADFA6DD80E015
S1130EE0ADDD01E913E07E0127E1E20EF11C5E01B4
S1130EF080E1A80EB11C6E0199E0C90ED11C80E0FE
S1130F0047DE9F938F937F936F931F930F93FF926B
S1130F10EF920E943D10C70131DF89E292E02EDF9B
S1130F20CADB9F938F937F936F931F930F93BF920B
S1130F30AF920E943D10D1DB9F938F937F936F9369
S1130F401F930F93DF92CF920E943D10CE01019622
S1130F506DDE85DCCE0101966ADF2FEF8BE792E927
S1130F60215080409040E1F700C0000078DCC501CA
S1130F7082DC85E27EDC81E07CDC80E27ADC61E09C
S1130F8080E070DCC60177DC80E073DC83E471DC34
S1130F902FEF8BE792E9215080409040E1F700C0A9
S1130FA000005DDC86E993E066DCC70164DC8CE963
S1130FB093E061DC2FEF8BE792E921508040904071
S1130FC0E1F700C000000FB6F894DEBF0FBECDBF3E
S1130FD096CF5058BB27AA270ED0A3C194D130F086
S1130FE099D120F031F49F3F11F41EF464C10EF442
S1130FF0E095E7FB5AC1E92FA5D180F3BA17620740
S113100073078407950718F071F49EF5BDC10EF4BB
S1131010E0950B2EBA2FA02D0B01B90190010C0104
S1131020CA01A0011124FF27591B99F0593F50F41C
S1131030503E68F11A16F040A22F232F342F442774
S1131040585FF3CF469537952795A795F04053956C
S1131050C9F77EF41F16BA0B620B730B840BBAF03C
S11310609150A1F0FF0FBB1F661F771F881FC2F7A7
S11310700EC0BA0F621F731F841F48F487957795BB
S11310806795B795F7959E3F08F0B3CF9395880F72
S113109008F09927EE0F9795879508950CD041C1D4
S11310A039D140F030D130F021F45F3F19F0FDC068
S11310B051116BC100C146D198F39923C9F355234B
S11310C0B1F3951B550BBB27AA2762177307840737
S11310D038F09F5F5F4F220F331F441FAA1FA9F3ED
S11310E033D00E2E3AF0E0E830D091505040E695DF
S11310F0001CCAF729D0FE2F27D0660F771F881F40
S1131100BB1F261737074807AB07B0E809F0BB0B2E
S1131110802DBF01FF2793585F4F2AF09E3F510552
S113112068F0C3C032C15F3FECF3983EDCF38695B0
S113113077956795B795F7959F5FC9F7880F911DC8
S11311409695879597F90895E1E0660F771F881FB4
S1131150BB1F621773078407BA0720F0621B730B67
S1131160840BBA0BEE1F88F7E095089519F40EF07E
S11311709CC00AC1A0C0EED0C8F39638C0F707F8E7
S11311800F92E8942BE33AEA48EB5FE7C7D10F925A
S11311900F920F924DB75EB70F927FD1E2EFF0E05E
S11311A08DD04F915F91EF91FF91E595EE1FFF1F59
S11311B049F0FE57E0684427EE0F441FFA95E1F723
S11311C04195550BF1D00F9007FEE5C0089504D06A
S11311D06894B111DAC00895BDD088F09F5790F09B
S11311E0B92F9927B751A0F0D1F0660F771F881F48
S11311F0991F1AF0BA95C9F712C0B13081F0C4D062
S1131200B1E00895C1C0672F782F8827B85F39F0FF
S1131210B93FCCF3869577956795B395D9F73EF4A6
S113122090958095709561957F4F8F4F9F4F08954E
S1131230E89409C097FB3EF490958095709561956C
S11312407F4F8F4F9F4F9923A9F0F92F96E9BB2722
S11312509395F695879577956795B795F111F8CF9E
S1131260FAF4BB0F11F460FF1BC06F5F7F4F8F4F09
S11312709F4F16C0882311F096E911C0772321F0FF
S11312809EE8872F762F05C0662371F096E8862F97
S113129070E060E02AF09A95660F771F881FDAF7EE
S11312A0880F9695879597F9089597F99F6780E831
S11312B070E060E008959FEF80EC0895DF93CF9392
S11312C01F930F93FF92EF92DF927B018C0168943E
S11312D005C0DA2EEF0120D1FE01E894A5912591F5
S11312E0359145915591AEF3EF0185DEFE019701ED
S11312F0A801DA9479F7DF90EF90FF900F911F9196
S1131300CF91DF91089500240A9416161706180643
S11313100906089500240A941216130614060506F5
S11313200895092E0394000C11F4882352F0BB0F86
S113133040F4BF2B11F460FF04C06F5F7F4F8F4FE9
S11313409F4F089557FD9058440F551F59F05F3F24
S113135071F04795880F97FB991F61F09F3F79F0D3
S113136087950895121613061406551FF2CF469555
S1131370F1DF08C0161617061806991FF1CF8695D7
S11313807105610508940895E894BB2766277727BB
S1131390CB0197F908959B01AC0160E070E080E80F
S11313A09FE37CCE82CF5BC1D5DFE8F39923D9F3E9
S11313B0940F511DBBF39150504094F059F0882381
S11313C032F0660F771F881F91505040C1F79E3F3F
S11313D0510544F7880F911D9695879597F90895BF
S11313E05F3FACF0983E9CF0BB2786957795679558
S11313F0B79508F4B1609395C1F7BB0F58F711F492
S113140060FFE8CF6F5F7F4F8F4F9F4FE3CFBDCF1C
S11314100EF025C150CF689448CF9CDFC8F39923C0
S1131420D1F3C6F3DF93CF931F930F93FF92C92F8A
S1131430DD2788232AF02197660F771F881FDAF7A4
S113144020E030E040E85FEB9FE3883920F0803E05
S113145030F021968F77BEDDEAE1F1E003C0BADD1A
S1131460E7E4F1E02BDF8B01BE01EC01FB2E6F57AB
S113147071097595771F880B990BDCDE28E132E73B
S113148041E35FE349D0AF2D9801AE01FF900F9186
S11314901F91CF91DF91AFDD44CFFA01DC01AA0F98
S11314A0BB1F9B01AC01BF5728F4222733274427D5
S11314B050781FC0B75188F4AB2F00244695379558
S11314C02795011CA395D2F3002069F0220F331F46
S11314D0441FB395DAF30DD07CCD61307105A0E8DB
S11314E08A07B94630F49B01AC0166277727882721
S11314F09078309621F0208331834283538308957A
S11315000BD00FCF00DF28F005DF18F0952309F08A
S1131510CCCED1CE112439CF15DFA0F3959FD1F3D2
S1131520950F50E0551F629FF001729FBB27F00D8D
S1131530B11D639FAA27F00DB11DAA1F649F6627E2
S1131540B00DA11D661F829F2227B00DA11D621F31
S1131550739FB00DA11D621F839FA00D611D221FEB
S1131560749F3327A00D611D231F849F600D211DCF
S1131570822F762F6A2F11249F5750408AF0E1F072
S113158088234AF0EE0FFF1FBB1F661F771F881FBB
S113159091505040A9F79E3F510570F086CEF5CE8C
S11315A05F3FECF3983EDCF3869577956795B795A6
S11315B0F795E7959F5FC1F7FE2B880F911D9695D0
S11315C0879597F90895FA01EE0FFF1F30962105CC
S11315D0310599F16115710561F48038BFE39B070A
S11315E049F168949038810561F08038BFEF9B071A
S11315F041F0992342F5FF3FE1053105210511F141
S1131600E8940894E795D901AA2329F4AB2FBE2FB7
S1131610F85FD0F310C0FF5F70F4A695E0F7F739D8
S113162050F019F0FF3A38F49F779F930CD00F9045
S113163007FC905808953EF03ECE60E070E080E8EC
S11316409FE308954FE79F775F934F933F932F93C3
S1131650E4DE2F913F914F915F9152DF8CCD9F3FFC
S113166031F0915020F4879577956795B795880F59
S1131670911D9695879597F908952F923F924F92D1
S11316805F926F927F928F929F92AF92BF92CF920E
S1131690DF92EF92FF920F931F93CF93DF93CDB717
S11316A0DEB760970FB6F894DEBF0FBECDBF7C01E6
S11316B01B016A01FC0117821682838181FF2AC300
S11316C09E012F5F3F4F3901F7019381F10193FD93
S11316D0859193FF81911F01882309F417C38532F3
S11316E039F493FD859193FF81911F01853231F483
S11316F0B70190E086D456016501E6CF10E0512C85
S1131700912CFFE1F915D8F08B3279F038F480325E
S113171079F08332A1F4F92DF0612EC08D3261F09D
S1131720803369F4292D21602DC0392D3260932E28
S1131730892D8460982E2AC0E92DE86015C097FC95
S11317402DC020ED280F2A3088F496FE06C03AE01A
S1131750139F200D1124122F19C08AE0589E200DCA
S11317601124522EE92DE0629E2E10C08E3231F4E7
S113177096FCCCC2F92DF0649F2E08C08C3621F45F
S1131780292D2068922E02C0883641F4F10193FD80
S1131790859193FF81911F018111B3CF9BEB980F2A
S11317A0933020F4992D9061805E07C09BE9980FD7
S11317B0933008F059C1992D9F7E96FF16E09F73D0
S11317C0992E853619F49064992E08C0863621F432
S11317D0392F3068932E02C01111115097FE07C0A3
S11317E01C3350F444244394410E27E00BC01830BA
S11317F038F027E017E005C027E09CE3492E02C03B
S1131800212F412C560184E0A80EB11CF601608101
S1131810718182819381042DA301E2D26C01F9814B
S1131820FC87F0FF02C0F3FF06C091FC06C092FEE5
S113183006C000E205C00DE203C00BE201C000E0F7
S11318408C858C7019F0011143C280C297FE10C0C0
S11318504C0CFC85F4FF04C08A81813309F44A945A
S1131860141474F528E0241578F588E0482E2CC06B
S113187096FC2AC0812F90E08C159D059CF03CEFCE
S1131880C3163FEFD30674F0892D8068982E0AC0E2
S1131890E2E0F0E0EC0FFD1FE10FF11D80818033E9
S11318A019F411501111F4CF97FE0EC0442443943F
S11318B0410E812F90E0C816D9062CF41C1904C0DF
S11318C04424439401C010E097FE06C01C141D0478
S11318D034F4C601019605C085E090E002C081E0C1
S11318E090E001110196112331F0212F30E02F5F98
S11318F03F4F820F931F252D30E08217930714F476
S1131900581A01C0512C892D897041F4552031F0A9
S1131910B70180E290E075D35A94F8CF002321F008
S1131920B701802F90E06DD393FC08C0552031F0AF
S1131930B70180E390E065D35A94F8CF97FE4AC08C
S11319404601D7FE02C0812C912CC6018819990941
S1131950F301E80FF91FFE87ED8796012419310979
S1131960388B2F87012F10E01195019511093FEF56
S11319708316930621F4B7018EE290E042D3C81493
S1131980D9044CF08F8598898815990524F4ED8540
S1131990FE85818101C080E3F1E08F1A91082D85D5
S11319A03E852F5F3F4F3E872D878016910624F09A
S11319B0B70190E026D3DBCFC814D90441F49A814F
S11319C0963320F4953319F43C8534FF81E3B70151
S11319D090E048C08A81813319F09C859F7E9C8762
S11319E0B70190E00ED3111105C094FC16C085E632
S11319F090E015C0B7018EE290E003D31E5F82E051
S1131A0001E0080FF301E80FF11D8081B70190E0B8
S1131A10F8D2802F0113F4CFE8CF85E490E0B7012A
S1131A20F0D2D7FC06C0C114D10441F4EC85E4FF24
S1131A3005C0D194C194D1088DE201C08BE2B701F5
S1131A4090E0DFD280E32AE0C216D1042CF08F5F4D
S1131A50FAE0CF1AD108F7CFB70190E0D2D2B7019C
S1131A60C601C096CED249C1833631F0833779F0AE
S1131A70833509F052C01FC0560132E0A30EB11CD9
S1131A80F6018081898301E010E0630111C05601F1
S1131A90F2E0AF0EB11CF601C080D18096FE03C007
S1131AA0612F70E002C06FEF7FEFC6017CD28C0122
S1131AB0F92DFF7713C0560122E0A20EB11CF601E6
S1131AC0C080D18096FE03C0612F70E002C06FEF2A
S1131AD07FEFC6015DD28C01F92DF0689F2EF3FDD6
S1131AE018C0852D90E00817190798F4B70180E213
S1131AF090E087D25A94F5CFF60197FC859197FE32
S1131B0081916F01B70190E07CD251105A94015039
S1131B1011090115110581F7F0C0843611F08936D9
S1131B2059F5560197FE09C024E0A20EB11CF60136
S1131B3060817181828193810AC0F2E0AF0EB11C91
S1131B40F60160817181072E000C880B990BF92D29
S1131B50FF769F2E97FF09C09095809570956195AB
S1131B607F4F8F4F9F4FF0689F2E2AE030E0A301F4
S1131B70B2D2C82EC6183EC0092D853721F40F7E77
S1131B802AE030E01DC0097F8F3691F018F48835C3
S1131B9059F0BCC0803719F0883711F0B7C0006124
S1131BA004FF09C0046007C094FE08C0066006C0B4
S1131BB028E030E005C020E130E002C020E132E05E
S1131BC0560107FF09C084E0A80EB11CF60160812C
S1131BD071818281938108C0F2E0AF0EB11CF601DD
S1131BE06081718180E090E0A30175D2C82EC6188F
S1131BF00F77902E96FE0BC0092D0E7FC11650F460
S1131C0094FE0AC092FC08C0092D0E7E05C0DC2C8F
S1131C10092D03C0DC2C01C0D12E04FF0DC0FE0130
S1131C20EC0DF11D8081803311F4097E09C002FF9F
S1131C3006C0D394D39404C0802F867809F0D3943B
S1131C4003FD10C000FF06C01C2DD51478F4150D3B
S1131C501D190CC0D51450F4B70180E290E0D1D125
S1131C60D394F8CFD51410F45D1801C0512C04FF9F
S1131C700FC0B70180E390E0C4D102FF16C001FD9C
S1131C8003C088E790E002C088E590E0B7010CC08B
S1131C90802F867851F001FF02C08BE201C080E200
S1131CA007FD8DE2B70190E0ACD1C11630F4B70165
S1131CB080E390E0A6D11150F8CFCA94F301EC0D63
S1131CC0F11D8081B70190E09CD1C110F6CF15C001
S1131CD0F4E0F51550F584E0581A93FE1EC0011186
S1131CE025C02C8523FF27C004E711E0392D30716E
S1131CF0932EF8018491811121C0552009F4FCCC64
S1131D00B70180E290E07DD15A94F7CFF701868144
S1131D10978123C08FEF9FEF20C0B70180E290E04E
S1131D2070D15A945110F9CFDACF512CB701802FCA
S1131D3090E067D1D6CF08E711E0D8CF9110805258
S1131D40B70190E05ED10F5F1F4FD3CF23E025157D
S1131D5010F483E0C1CF512CC4CF60960FB6F89431
S1131D60DEBF0FBECDBFDF91CF911F910F91FF90CA
S1131D70EF90DF90CF90BF90AF909F908F907F9027
S1131D806F905F904F903F902F900895A1E21A2E8C
S1131D90AA1BBB1BFD010DC0AA1FBB1FEE1FFF1F0B
S1131DA0A217B307E407F50720F0A21BB30BE40B5B
S1131DB0F50B661F771F881F991F1A9469F76095A2
S1131DC07095809590959B01AC01BD01CF0108955C
S1131DD0EE0FFF1F881F8BBF0790F691E02D19941B
S1131DE0283008F027E03327DA01990F311D87FDE9
S1131DF0916000966105710539F432602E5F3D9360
S1131E0030E32A95E1F708959F3F30F0803871055B
S1131E10610509F03C5F3C5F3D93913008F08068B8
S1131E20911DDF93CF931F930F93FF92EF92192F7E
S1131E30987F9695E92F96959695E90FFF27EA5294
S1131E40FE4F99273327EE24FF24A701E7010590CD
S1131E500894079428F4360FE71EF81E491F511DF5
S1131E60660F771F881F991F0694A1F705900794A2
S1131E7028F4E70EF81E491F561FC11D770F881F4F
S1131E80991F661F0694A1F70590079428F4F80E8D
S1131E90491F561FC71FD11D880F991F661F771F23
S1131EA00694A1F70590079420F4490F561FC71F05
S1131EB0D81F990F661F771F881F0694A9F784916E
S1131EC01095177041F0D695C79557954795F79497
S1131ED0E7941A95C1F7ECE7F1E068941590159131
S1131EE035916591959105907FE27395E118F10A1A
S1131EF0430B560BC90BD009C0F7E10CF11E431F6D
S1131F00561FC91FD01D7EF4703311F48A95E6CF95
S1131F10E894015030F0080F0AF40027021708F47F
S1131F20202F2395022F7A3328F079E37D932A9585
S1131F30E9F710C07D932A9589F6069497956795DD
S1131F40379517951794E118F10A430B560BC90BF3
S1131F50D00998F023957E9173957A3308F070E355
S1131F607C932013B8F77E9170617D9330F0839554
S1131F7071E37D9370E32A95E1F71124EF90FF90CC
S1131F800F911F91CF91DF91992787FD9095089527
S1131F90FC010590615070400110D8F78095909530
S1131FA08E0F9F1F0895FC01615070400190011035
S1131FB0D8F7809590958E0F9F1F0895BB274A30C0
S1131FC031F4992322F4BDE2909581959F4F01C08D
S1131FD0BB27FB015527AA27880F991FAA1FA417FF
S1131FE010F0A41B83955051B9F7A05DAA3308F0F3
S1131FF0A95DA193009779F7B111B1931192CB0127
S1132000C8C00F931F93CF93DF93FB01238121FD5E
S113201003C08FEF9FEF2CC022FF16C0468157816B
S1132020248135814217530744F4A081B1819D0175
S11320302F5F3F4F318320838C93268137812F5F1D
S11320403F4F3783268314C08B01EC01FB010084CE
S1132050F185E02D1995892BE1F6D80116968D911D
S11320609C911797019617969C938E931697CE0181
S1132070DF91CF911F910F9108950F931F93CF93E9
S1132080DF93CDB7DEB72E970FB6F894DEBF0FBE41
S1132090CDBF0E891F8986E08C831A8309838FEF55
S11320A09FE79E838D83AE01465E5F4F688D798D79
S11320B0CE010196E2DAEF81F885E00FF11F10827C
S11320C02E960FB6F894DEBF0FBECDBFDF91CF9131
S11320D01F910F910895FA01AA27283051F1203158
S11320E081F1E8946F936E7F6E5F7F4F8F4F9F4FA8
S11320F0AF4FB1E03ED0B4E03CD0670F781F891FEA
S11321009A1FA11D680F791F8A1F911DA11D6A0FB7
S1132110711D811D911DA11D20D009F468943F916A
S11321202AE0269F11243019305D3193DEF6CF0169
S11321300895462F4770405D4193B3E00FD0C9F72F
S1132140F6CF462F4F70405D4A3318F0495D31FD9C
S11321504052419302D0A9F7EACFB4E0A6959795EF
S1132160879577956795BA95C9F7009761057105C5
S113217008959B01AC010A2E06945795479537950F
S11321802795BA95C9F7620F731F841F951FA01D69
S11321900895DC01FC01672F71917723E1F73297F1
S11321A004C07C916D9370836291AE17BF07C8F32E
S10921B00895F894FFCF2E
S11321B6A4F0E5427D3F3DC013000000204106091E
S11321C609060000000000040A11110E0000414433
S11321D6432076616C75653A000D0A006973427591
S11321E67379203D3D200073656E64696E672073C4
S11321F674617274207369676E616C0A0D005469A8
S11322066D656F7574202D2077616974696E67201A
S1132216666F722073656E736F7220696E69746976
S1132226616C206C6F772070756C73650A0D0054B1
S1132236696D656F7574202D2077616974696E67A1
S113224620666F722073656E736F7220696E69748F
S113225669616C20686967682070756C73650A0D1E
S11322660052656164206661696C757265202D2073
S113227674696D656F75742077616974696E67201A
S1132286666F722070756C73650A0D00202000431A
S11322966865636B73756D20737563636573730A21
S11322A60D00436865636B73756D204661696C75D3
S11322B672650A0D005265616420746F6F20736F36
S11322C66F6E202D2052657475726E696E6720706C
S11322D6726576696F757320646174610A0D0043D3
S11322E6616C6962726174696E67204D5120736511
S11322F66E736F72200A200D0043616C696272610D
S113230674696F6E20646F6E6520666F7220434F2A
S113231632200A200D00526F2076616C75653A20D2
S1132326000D200A004D6F6E0054756500576564F4
S11323360054687500467269005361740053756EE3
S113234600252E316600434F323A200070706D002E
S9030000FC
